S12340000004000000003000000000000000000000000000000000000000A8760154696D1F
S123402000000000000000000000000000000000000000000000000000000000000000007C
S123404000000000000000000000000000000000000000000000000000000000000000005C
S123406000000000000000000000000000000000000000000000000000000000000000003C
S123408000000000000000000000000000000000000000000000000000000000000000001C
S12340a00000000000000000000000000000000000000000000000000000000000000000FC
S12340c00000000000000000000000000000000000000000000000000000000000000000DC
S12340e00000000000000000000000000000000000000000000000000000000000000000BC
S123410000000000000000000000000000000000000000000000000000000000000000009B
S123412000000000000000000000000000000000000000000000000000000000000000007B
S123414000000000000000000000000000000000000000000000000000000000000000005B
S123416000000000000000000000000000000000000000000000000000000000000000003B
S123418000000000000000000000000000000000000000000000000000000000000000001B
S12341a00000000000000000000000000000000000000000000000000000000000000000FB
S12341c00000000000000000000000000000000000000000000000000000000000000000DB
S12341e00000000000000000000000000000000000000000000000000000000000000000BB
S123420000000000000000000000000000000000000000000000000000000000000000009A
S123422000000000000000000000000000000000000000000000000000000000000000007A
S123424000000000000000000000000000000000000000000000000000000000000000005A
S123426000000000000000000000000000000000000000000000000000000000000000003A
S9030000FC
